:0400000062EF0BF0B0
:08000800046ED8CF05F0E0CF33
:1000100006F00001E9CF0CF0EACF07F0E1CF08F0DD
:10002000E2CF09F0D9CF0AF0DACF0BF0F3CF12F01C
:10003000F4CF13F0FACF14F0F5CF15F0F6CF16F099
:10004000F7CF17F000C00EF001C00FF002C010F0A3
:1000500003C011F09DAA30EF00F09EBA61EF00F0EE
:100060000EC000F00FC001F010C002F011C003F08C
:100070000CC0E9FF07C0EAFF078E08C0E1FF09C016
:10008000E2FF0AC0D9FF0BC0DAFF12C0F3FF13C0B2
:10009000F4FF14C0FAFF15C0F5FF16C0F6FF17C035
:1000A000F7FF045006C0E0FF05C0D8FF1000F76A54
:1000B000BE0FF66E000EF7220900F5501200280F51
:1000C00001069EAAFED7AECF87F08751760803E0DF
:1000D0008751560802E1010E196E8751410802E16D
:1000E000020E196E8751610802E1030E196E8751E5
:1000F000520802E1040E196E8751720802E1050EE2
:10010000196E8751550802E1060E196E8751750860
:1001100002E1070E196E8751490802E1080E196EB7
:100120008751690802E1090E196E87514D0803E0F5
:1001300087516D0802E10A0E196E8751450803E0E8
:100140008751650802E10B0E196E9E9A30EF00F0A0
:10015000434C49434F4E534F4C45532020202020C1
:100160002020000048656E726971756500002020CE
:1001700020205861766965722020202020002531DA
:100180002E3166256343202530332E3066257320BB
:1001900052486172000025002530332E30662573E9
:1001A000205248736F6C6F2563256C7520202000EA
:1001B000250020202020414C455254412120202060
:1001C000200025303264202020202020200054658B
:1001D0006D7065726174757261205265672E0000E2
:1001E0004D696E3A25303275256320204D61783A8D
:1001F0002530327525630000556D69642E20536FDC
:100200006C6F20205265672E00004D696E3A2530D4
:10021000337520204D61783A253033750000556DD7
:1002200069642E204172202020205265672E000034
:100230004D696E3A2530337520204D61783A25306E
:1002400033750000253032753A253032753A253045
:100250003275202020202020202020005265672E8B
:1002600020416C65727461733A202530326400005D
:100270004171756563696D656E746F004D6F646F74
:100280003A204175746F6D617469636F00004D6F42
:10029000646F3A204C696761646F20202020000061
:1002A000526573667269616D656E746F00004D6FA3
:1002B000646F3A204175746F6D617469636F0000FB
:1002C0004D6F646F3A204C696761646F2020202075
:1002D0000000556D6964696669636163616F000060
:1002E0004D6F646F3A204175746F6D617469636F0F
:1002F00000004D6F646F3A204C696761646F202085
:100300002020000049727269676163616F004D6F60
:10031000646F3A204175746F6D617469636F00009A
:100320004D6F646F3A204C696761646F2020202014
:1003300000004D6F646F3A2054696D657220202073
:100340002020000054656D706572617475726100E3
:100350004F66667365743A20202020202530326471
:100360002563430054656D70657261747572610038
:100370004D6178696D613A2020202020253032645B
:1003800025634300556D696461646520646F205383
:100390006F6C6F2000004F66667365743A202020F2
:1003A000202025303364257300002500556D6964D5
:1003B00061646520646F2041522000004F666673BF
:1003C00065743A20202020202530336425730000F6
:1003D0002500416A75737461722052656C6F67699C
:1003E0006F002563253032643A25303264202020A6
:1003F00020202000416A75737461722052656C6F11
:1004000067696F00253032643A25303264256320F5
:1004100020202020200054696D6572204972726985
:10042000676163616F2000004465736162696C6994
:100430007461646F202020200000486162696C694B
:100440007461646F202020202020000054696D65B5
:10045000722049727269676163616F004C696761FC
:10046000723A2020202563253032643A25303264E8
:10047000200054696D657220497272696761636119
:100480006F004C696761723A202020202530326469
:100490003A2530326425630054696D6572204972D3
:1004A0007269676163616F004465736C696761724B
:1004B0003A2563253032643A25303264200054698D
:1004C0006D65722049727269676163616F0044658E
:1004D000736C696761723A20253032643A25303294
:1004E0006425630054656D70657261747572613D59
:1004F0002025322E3166206772617573200D0A0047
:10050000556D696461646520646F2041723D2025EA
:10051000322E3166202573200D0A00002500556D0E
:10052000696461646520646F20536F6C6F3D2025A2
:10053000322E3166202573200D0A000025004171FE
:1005400075656365646F7220666F69206C696761A9
:10055000646F206D616E75616C6D656E7465200DE4
:100560000A00417175656365646F7220666F69206A
:1005700070617261206D6F646F206175746F6D6161
:100580007469636F200D0A00526573667269616455
:100590006F7220666F69206C696761646F206D619E
:1005A0006E75616C6D656E7465200D0A0000526594
:1005B0007366726961646F7220666F692070617220
:1005C00061206D6F646F206175746F6D6174696314
:1005D0006F200D0A0000556D696469666963616486
:1005E0006F7220666F69206C696761646F206D614E
:1005F0006E75616C6D656E7465200D0A0000556D39
:1006000069646966696361646F7220666F692070EE
:10061000617261206D6F646F206175746F6D6174BC
:1006200069636F200D0A0000497272696761646F27
:100630007220666F69206C696761646F206D616EFE
:1006400075616C6D656E7465200D0A004972726982
:100650006761646F7220666F692070617261206DDE
:100660006F646F206175746F6D617469636F200DC5
:100670000A0054656D7065726174757261206D69F0
:100680006E696D6120726567697374726164613D42
:10069000202575206772617573200D0A000054656E
:1006A0006D7065726174757261206D6178696D61DC
:1006B0002072656769737472616461203D202575DD
:1006C000206772617573200D0A00556D696461645D
:1006D0006520646F204172206D6178696D612072C0
:1006E0006567697374726164613D202575202573A7
:1006F000200D0A002500556D696461646520646FF2
:10070000204172206D696E696D6120726567697341
:1007100074726164613D20257520257320200D0AC7
:1007200000002500556D696461646520736F205376
:100730006F6C6F206D696E696D612072656769739A
:100740007472616461203D202575202573200D0A97
:1007500000002500556D696461646520646F205355
:100760006F6C6F206D6178696D6120726567697368
:1007700074726164613D202575202573200D0A0087
:100780002500526567697374726F20646520416C3F
:1007900065727461733D202564200D0A0000414C90
:1007A000455254412120416C676F20657374E120EC
:1007B00065727261646F2E20436F6469676F3A20BF
:1007C00025640D0A0000EA6A7B0EE96EEF500EE028
:1007D000050E016E006A002EFED7012EFBD72E0EED
:1007E000006E002EFED700D0EF2EF2D7120082B19D
:1007F00002D08A9801D08A88939882B302D08A9ACC
:1008000001D08A8A939A82B502D08A9C01D08A8CC0
:10081000939C82B702D08A9E01D08A8E939E939633
:100820008A8693968A96120093948A947F5202E164
:100830008A9401D08A849394850E006E002EFED790
:1008400093968A968039816F0F0E811781C082F04E
:10085000CEDF80510F0B816F826FC9DF120093983A
:100860008A98939A8A9A939C8A9C939E8A9E939440
:100870008A9493968A960F0E7B6EA5DF010E6D6E9D
:100880006D50030808E3030E826FB1DF050E7B6E27
:100890009ADF6D2AF5D7020E826FA9DF6D6A6D505F
:1008A000030809E3036A6D5002DC6E6E7F6A806F95
:1008B000BBDF6D2AF4D7BEEF0BF07C2C01D003D048
:1008C000400E7D6E01D07D6A010E7B5C7D267D50E1
:1008D00080097E6E7F6A806FA7DF12007A500C0A53
:1008E00007E0060A0DE0070A0BE0050A0FE013D047
:1008F0007F6A010E806F98DF020E7B6E64DF11D07D
:10090000010E7B6E020E7C6ED8DF0BD07F6A100E5C
:10091000806F8ADF06D0010E7F6E7AC080F084DFA0
:1009200000D012000900F5520CE0F6CF6DF0F7CFC1
:100930006EF0F5CF7AF0D2DF6DC0F6FF6EC0F7FF34
:10094000F1D712007A50D8B471D0006E7E50D8B46E
:100950006DD0002604E3810E002668E204D07F0EED
:10096000005E64E363E07BC082F07F50821B7B8E7D
:100970007F8E7D508103F4CF84F07C508003F4CFD0
:1009800003F0F3CF83F08103F3508427F4508323E3
:10099000000E03227D508003F3508427F4508323FC
:1009A000000E026A032202227B508103F350832748
:1009B000F4500322000E02227B508003F3500326E2
:1009C000F4500222000E016A01227D507F02F35092
:1009D0008327F4500322000E022201227C507F0262
:1009E000F3500326F4500222000E01227B507F02B6
:1009F000F3500226F4500122002A01BE05D08337AD
:100A00000336023601360006000E83AF0AD0032AF1
:100A100002220122015005E1025003E1035001E1ED
:100A2000002A82BF018E82AF019E04D0006A016A53
:100A3000026A036A12007A50B6087A6E036A7BC0B3
:100A40007EF07B8ED8907B327C327D320332023254
:100A5000013200327A2EF6D77EAE0BD0001E011E78
:100A6000021E031E002AD8B4012AD8B4022AD8B420
:100A7000032A1200D8B203D0EA6A820EE96E006A35
:100A8000016A026A036A826B836B846B856B815196
:100A900080117F107E102CE0200E866FD8907A3661
:100AA0007B367C367D368237833784378537815174
:100AB000855D08E18051845D05E17F50835D02E141
:100AC0007E50825D0FE37E50825F7F50D8A07F3CD6
:100AD000835F8051D8A0803D845F8151D8A0813D43
:100AE000855FD8800036013602360336862FD6D78A
:100AF00082C0EFFF83C0ECFF84C0ECFF85C0ECFF39
:100B00001200E950726E7150746E19E070C07DF081
:100B10006FC07CF06EC07BF06DC07AF0816B806B33
:100B2000200E7F6E820E7E6E0DDF03C070F002C05D
:100B30006FF001C06EF000C06DF0742EE7D770C08A
:100B40007DF06FC07CF06EC07BF06DC07AF073DF1B
:100B500003C070F002C06FF001C06EF000C06DF015
:100B600070AE0DD07206728A6D1E6E1E6F1E701EE4
:100B70006D2AD8B46E2AD8B46F2AD8B4702A3B0E26
:100B8000796E9A0E786ECA0E776E766A0A0E746E59
:100B90007150D8B4722AD882EA6A6D0EE96E70C0BC
:100BA0007DF06FC07CF06EC07BF06DC07AF079C0D4
:100BB00081F078C080F077C07FF076C07EF05ADF99
:100BC000015000520FE17128745C0CE072500CE08F
:100BD0000F0B745C01E037E272BE35D072BC04D0FA
:100BE000200E2DD0200E721672AA0CD0729A71505F
:100BF000D8A472060050726E2D0E7A6E6FDE72509F
:100C0000006E726A7150745C0AE10050726E2E0EB2
:100C10007A6E64DE7250006E200E7216000E300E78
:100C200072AA0DD0729A7150D8A472060050726EDA
:100C30002D0E7A6E53DE7250006E726A300E0026F0
:100C400000C07AF04BDED89279C07DF078C07CF09D
:100C500077C07BF076C07AF0816B806B7F6A0A0E7A
:100C60007E6E08DF03C079F002C078F001C077F033
:100C700000C076F0742E8FD712000900F6CF6EF008
:100C8000F7CF6FF0F5CF7AF029DE6EC0F6FF6FC0B8
:100C9000F7FF6D2EF2D71200EACF75F0E9CF74F0AE
:100CA0006E38F009706E7026E20F716E320F736E3F
:100CB0006E500F0B712671267326E90F726E722625
:100CC00072266D380F0B7226732672367336731EBA
:100CD00073366D500F0B73267036070E6F6E0A0E4B
:100CE00072067326FDE371067226FDE37006712617
:100CF000FDE36F067026FDE3EA6A6F0EE96E070EEC
:100D00007414749CE926730EE95CD8B4748CEF50AB
:100D1000006E08E174BC06D074B813D074B602D06B
:100D2000200E03D074867498300E0026EACF6EF041
:100D3000E9CF6DF000C07AF0D1DD6EC0EAFF6DC082
:100D4000E9FFEE5074ACDFD70FEF0DF07450016A7D
:100D5000735C03E273C000F00CD0006A080E756E7D
:100D6000733600367450005CD8B0006E0136752EB4
:100D7000F7D71200200E6EA8300E6F6E6DC000F017
:100D80006DAE08D0001E002A00C06DF02D0E6F6EF3
:100D90006E8E6E8001506DC073F0640E746ED6DF7F
:100DA00000C06DF0300E0124706E6DC073F00A0E3D
:100DB000746ECCDF300E0024726E300E0124716E22
:100DC0006FC000F0300E705C04E06E826EBE6E8408
:100DD00012D06EB410D06FC070F06EB204D0300E6E
:100DE000715C04E06E806EBE6E8205D0D8A46E8009
:100DF000D8B470C071F06EB405D06EB206D06EB0CB
:100E000007D009D06FC07AF069DD70C07AF066DD76
:100E100071C07AF063DD72C07AF060DD12000150BB
:100E20006DC073F0640E746E91DF00C06DF0015000
:100E3000300E07E16EA20CD06EB60AD06EB8200E4E
:100E400003D06E966E986E80012601C07AF046DD62
:100E50006DC073F00A0E746E79DF00C06DF0015042
:100E6000300E06E16EB608D06EA006D06EB8200E29
:100E7000012601C07AF032DD300E6D266DC07AF0A9
:100E80002DDD12008E0E006E6EC001F06DC002F0FE
:100E9000036A015209E102C001F0026A080E005E15
:100EA000015202E1006A08D0D89001BE04D0023697
:100EB00001360006F9D7019E12007150D8B4A5D0B2
:100EC0007D6E7550D8B4A1D07D5E05E37F0E7D2682
:100ED000D8B09BD006D0810E7D5ED8A096D0D8B475
:100EE00094D07DC000F0016A026A036A7C6A72C015
:100EF0007BF07B8E73C07AF074C079F0190E7D6E32
:100F00007850795E0DE2010E7A5E0AE27B5E08E2BD
:100F10007C5E06E27C2A7B2A7A2A7850792628D0C1
:100F200077507A5E12E2010E7B5E0FE27C5E0DE28C
:100F30007C2A7B2A77507A267850792619E37A2AF8
:100F400017E17B2A15E17C2A13D0765080097B5E5D
:100F50000EE2010E7C5E0BE27C2A765080097B2635
:100F600077507A26E9E37B2AE7E17C2AE5D70380FC
:100F70007D2E01D00BD0D89079367A367B367C36F0
:100F8000D8900336023601367E36BAD77EA006D018
:100F9000D8900132023203327E3202D0000635E0B0
:100FA0007EBE1ED0D89079367A367B367C36785025
:100FB000795E07E2010E7A5E04E27B5E02E27C5E0D
:100FC0001AE377507A5E05E2010E7B5E02E27C5EF8
:100FD00012E3765080097B5E03E2010E7C5E0BE338
:100FE000032A09E1022A07E1012A05E1002A0DE0AE
:100FF00001320232033272C07DF076507D1A7DAE2E
:1010000002D0018E06D0019E04D0006A016A026AF5
:10101000036A1200040E6D5E09E3EA6A6D0EE96E62
:10102000EF5004E001D00000EF2EFDD77EEF10F06E
:10103000800ED8B2721A776A786A6EC076F07250F3
:10104000761A6D50D8B4DCD0756E006E7150D8B47D
:10105000E0D0755ED8B481D03DE372C07BF07B8E6A
:1010600073C07AF074C079F0786AD8907B327A32A3
:1010700079327832752EF8D776AE03D07780DDD00E
:10108000779075907788EA6A700EE96EE9D0779864
:1010900076BE0AD075A013D07B327A32793278329C
:1010A000002AD8B4C5D00BD07BBE0CD0D8907836EF
:1010B00079367A367B360006D8B4BAD0F5D7778C35
:1010C0006BD0779C6EC076F06EAE02D07B8EA9D0CE
:1010D0007B9EA7D071C075F071C000F06D50755E39
:1010E0006EC07BF07B8E6FC07AF070C079F0786A4A
:1010F000D8907B327A3279327832752EF8D776AE44
:1011000003D077829AD077927590778AEA6A740EC4
:10111000E96EA6D0779A76BE0AD075A013D07B323E
:101120007A3279327832002AD8B482D00BD07BBEA2
:101130000CD0D890783679367A367B360006D8B41B
:1011400077D0F5D7778E28D0779E72C076F072AEC2
:1011500002D07B8E66D07B9E64D072C07BF07B8E8B
:1011600073C07AF074C079F076AE04D07B9E778439
:1011700064D07794786A7590EA6A700EE96E70D0E0
:1011800076BE1CD06EC076F075A006D07B327A3267
:1011900079327832002A4CE078AE0BD0792A09E116
:1011A0007A2A07E17B2A05E17B327A327932002AFA
:1011B0003FE077BC86D777BEC7D71CD0800E7B1A9E
:1011C0007BAE04D03AD072C076F00AD06EC076F012
:1011D0007B5206E17A5204E1795202E1006A21D0A1
:1011E0007BBE08D0D890783679367A367B36002E9A
:1011F000F7D71ED076AE02D07B8E13D07B9E11D057
:1012000071C000F072C07BF073C07AF074C079F0E6
:1012100008D06DC000F06EC07BF06FC07AF070C077
:1012200079F07BC001F07AC002F079C003F034D0CD
:10123000006A016A026A036A2FD0786A791E7A1EF0
:101240007B1E781E782A05E1792A03E17A2A01E1DA
:101250007B2A77B015D777B256D777B48AD7B3D76A
:10126000EF50792605E37A2A03E17B2AD8B475800A
:10127000ED52EF507A2603E37B2AD8B47580ED5205
:10128000EF50EFBE01D0800A7B26D8B0758077B8CA
:10129000FED677BA3FD774D71200016A026A006A95
:1012A000036A705002E16F5018E0100E716ED89012
:1012B0006D366E36003603367050035C02E16F50B7
:1012C000005C07E36F50005ED8A003067050035E19
:1012D000D88001360236712EEAD731EF11F06EC098
:1012E00075F07250751A75AE05D0D894D8906EBE50
:1012F000D8802FD06EC075F071C076F06D50765EDC
:1013000006E075AE26D0D850010AD86E22D072C041
:1013100076F06E50765E06E075AE1BD0D850010AAE
:10132000D86E17D073C076F06F50765E06E075AE5B
:1013300010D0D850010AD86E0CD074C076F070501E
:10134000765E06E075AE05D0D850010AD86E01D0A1
:10135000D89012008E0E006E6D50005E6EC002F0CE
:101360006FC001F0028E005209E0D890025202E1F3
:10137000015204E002320132002EF7D76EAE05D0E2
:10138000011E021E012AD8B4022A12008E0E006E1F
:101390006EC001F06DC002F0036A6EAE05D0011E92
:1013A000021E022A01E1012A015209E102C001F0F4
:1013B000026A080E005E015202E1006A0AD0D8906B
:1013C00001BE04D0023601360006F9D76EBE01D048
:1013D000019E12000900F6CF6EF0F7CF6FF0F550C6
:1013E0009EA8FED7AD6E6EC0F6FF6FC0F7FF6D2EE4
:1013F000F1D71200E950726E7150746E1AE070C02D
:101400007DF06FC07CF06EC07BF06DC07AF0816BB8
:10141000806B200E7F6E820E7E6EA2EC04F003C005
:1014200070F002C06FF001C06EF000C06DF0742E5D
:10143000E6D770C07DF06FC07CF06EC07BF06DC0F1
:101440007AF01BEC05F003C070F002C06FF001C031
:101450006EF000C06DF070AE0DD07206728A6D1E17
:101460006E1E6F1E701E6D2AD8B46E2AD8B46F2AF5
:10147000D8B4702A3B0E796E9A0E786ECA0E776ECB
:10148000766A0A0E746E7150D8B4722AD882EA6AEB
:101490006D0EE96E70C07DF06FC07CF06EC07BF0A9
:1014A0006DC07AF079C081F078C080F077C07FF0AD
:1014B00076C07EF03AEC05F0015000520FE1712841
:1014C000745C0CE072500CE00F0B745C01E03BE2CA
:1014D00072BE39D072BC04D0200E30D0200E7216ED
:1014E00072AA0DD0729A7150D8A472060050726E12
:1014F0002D0E9EA8FED7AD6E7250006E726A7150AE
:10150000745C0BE10050726E2E0E9EA8FED7AD6E7D
:101510007250006E200E7216000E300E72AA0ED09F
:10152000729A7150D8A472060050726E2D0E9EA849
:10153000FED7AD6E7250006E726A300E00260050FB
:101540009EA8FED7AD6ED89279C07DF078C07CF0B1
:1015500077C07BF076C07AF0816B806B7F6A0A0E71
:101560007E6E3AEC05F003C079F002C078F001C05D
:1015700077F000C076F0742E89D712000900F5527A
:101580000DE0F6CF6DF0F7CF6EF0F5509EA8FED7C8
:10159000AD6E6DC0F6FF6EC0F7FFF0D712000150C0
:1015A0006DC073F0640E746EA6EC06F000C06DF0B2
:1015B0000150300E07E16EA20DD06EB60BD06EB8A2
:1015C000200E03D06E966E986E80012601509EA864
:1015D000FED7AD6E6DC073F00A0E746EA6EC06F009
:1015E00000C06DF00150300E06E16EB609D06EA05D
:1015F00007D06EB8200E012601509EA8FED7AD6E12
:10160000300E6D266D509EA8FED7AD6E1200200ED6
:101610006EA8300E6F6E6DC000F06DAE08D0001E6B
:10162000002A00C06DF02D0E6F6E6E8E6E80015020
:101630006DC073F0640E746EA6EC06F000C06DF021
:10164000300E0124706E6DC073F00A0E746EA6EC3D
:1016500006F0300E0024726E300E0124716E6FC0E1
:1016600000F0300E705C04E06E826EBE6E8412D0AC
:101670006FC070F0200E6F6E300E715C04E06E80F3
:101680006EBE6E8207D0D8A46E8004E170C071F087
:10169000200E706E6EB405D06EB207D06EB009D059
:1016A0000CD06F509EA8FED7AD6E70509EA8FED78E
:1016B000AD6E71509EA8FED7AD6E72509EA8FED73B
:1016C000AD6E1200F86AD09E078EEA6AE96A190EBA
:1016D000AF6EA20EAC6E900EAB6E196AC180C18265
:1016E000C184C1969D8AC00EF2121D6A1C6A1B6AD3
:1016F0001A6A206A190E216E630E226E236A2490E4
:10170000249224942496286A276A266A256A2A6ADB
:10171000296A2C6A2B6A640E326E336A346A356A1F
:10172000366A376A386A010E396E2498249A3E6AFE
:101730003D6A3C6A3B6A416A640E426E436A249C7D
:10174000456A446A476A466A526A536A546A556AE5
:10175000586A596A5A6A5B6A5C6A5D6A5E6A5F6A5D
:10176000606A616A626A636A646A249E656A666A1C
:10177000676A689268946C6A2FEF04F0020E6D6ECF
:10178000960E7B6EE3EC03F06D2EFAD7C190C192FA
:10179000C184C196C19CC28CC28EC18EC280F2CF60
:1017A0006DF0F29E010EA96EA69CA69EA680A85082
:1017B0006DBEF28E206EF2CF6DF0F29E020EA96E1B
:1017C000A69CA69EA680A8506DBEF28E216EF2CF7A
:1017D0006DF0F29E030EA96EA69CA69EA680A85050
:1017E0006DBEF28E346EF2CF6DF0F29E040EA96ED5
:1017F000A69CA69EA680A8506DBEF28E416EF2CF2A
:101800006DF0F29E050EA96EA69CA69EA680A8501D
:101810006DBEF28E366EF2CF6DF0F29E060EA96EA0
:10182000A69CA69EA680A8506DBEF28E376EF2CF03
:101830006DF0F29E070EA96EA69CA69EA680A850EB
:101840006DBEF28E386EF2CF6DF0F29E080EA96E6C
:10185000A69CA69EA680A8506DBEF28E396EF2CFD1
:101860006DF0F29E090EA96EA69CA69EA680A850B9
:101870006DBEF28E016E689001B06880F2CF6DF09F
:10188000F29E0A0EA96EA69CA69EA680A8506DBECA
:10189000F28E696EF2CF6DF0F29E0B0EA96EA69CD1
:1018A000A69EA680A8506DBEF28E6A6EF2CF6DF035
:1018B000F29E0C0EA96EA69CA69EA680A8506DBE98
:1018C000F28E6B6E000E68B0010E69246A246B24E0
:1018D000646E0C0E7A6E6EEC04F0030E7B6E010EDD
:1018E0007C6E5DEC04F0500EF66E010EF76E92EC1D
:1018F00004F00C0E6D6EFA0E7B6EE3EC03F06D2EB1
:10190000FAD70C0E7A6E6EEC04F0050E7B6E010EAB
:101910007C6E5DEC04F0640EF66E010EF76E92ECD8
:1019200004F0020E7B6E7C6E5DEC04F06E0EF66EC3
:10193000010EF76E92EC04F00A0E6D6EFA0E7B6EDD
:10194000E3EC03F06D2EFAD7585276E1595274E168
:10195000010E7B6E7C6E5DEC04F0890EE96E1DC09D
:1019600070F01CC06FF01BC06EF01AC06DF0010E5D
:10197000716E81EC05F0DF0E7A6E6EEC04F0430EB2
:101980007A6E6EEC04F0200E7A6E6EEC04F0420E6D
:10199000E96E3EC070F03DC06FF03CC06EF03BC0E1
:1019A0006DF0716A81EC05F0960EF66E010EF76E21
:1019B00092EC04F08F0EF66E010EF76E050E6D6E52
:1019C0003DEC06F0010E7B6E020E7C6E5DEC04F0C9
:1019D000420EE96E28C070F027C06FF026C06EF08E
:1019E00025C06DF0716A81EC05F0B00EF66E010E47
:1019F000F76E92EC04F0A00EF66E010EF76E070E75
:101A00006D6E3DEC06F07E0E7A6E6EEC04F0100EFC
:101A1000E96E2CC06EF02BC06DF04CEF06F0200E7E
:101A20007A6E6EEC04F0200E7A6E6EEC04F0200EEE
:101A30007A6E6EEC04F0606A948282B207D068B26B
:101A400005D06050030802E3602A5B6A948482B484
:101A500001D05B6A948282B202D0688201D068921F
:101A6000602C08D0595206E1010E586E0C0E7A6EA9
:101A70006EEC04F06050020808E1595206E1020ED3
:101A8000586E0C0E7A6E6EEC04F06050030808E19C
:101A9000595206E1030E586E0C0E7A6E6EEC04F08D
:101AA0006050040808E1595206E1040E586E0C0E0D
:101AB0007A6E6EEC04F063522AE0595228E15D50D0
:101AC0001E0825E3585223E10C0E7A6E6EEC04F0EA
:101AD000010E7B6E7C6E5DEC04F0B20EF66E010EB4
:101AE000F76E92EC04F0080E7B6E020E7C6E5DECDD
:101AF00004F063C06DF0010E6E6EBAEC06F0C60E17
:101B0000F66E010EF76E070E6D6E3DEC06F0582C6A
:101B100036D0010E7B6E7C6E5DEC04F0CE0EF66E60
:101B2000010EF76E92EC04F0010E7B6E020E7C6EDD
:101B30005DEC04F0E00EF66E010EF76E040E6D6EB5
:101B40003DEC06F022C06DF0010E6E6E0FEC07F05A
:101B5000DF0E7A6E6EEC04F0EA0EF66E010EF76E92
:101B6000060E6D6E3DEC06F023C06DF0010E6E6E3C
:101B70000FEC07F0DF0E7A6E6EEC04F05B2A585023
:101B800002082EE1010E7B6E7C6E5DEC04F0F80E17
:101B9000F66E010EF76E92EC04F0010E7B6E020EF3
:101BA0007C6E5DEC04F00A0EF66E020EF76E040E0B
:101BB0006D6E3DEC06F032C06DF0030E6E6E0FECF4
:101BC00007F0120EF66E020EF76E060E6D6E3DEC0D
:101BD00006F033C06DF0030E6E6E0FEC07F05B2A5B
:101BE000585003082EE1010E7B6E7C6E5DEC04F014
:101BF0001E0EF66E020EF76E92EC04F0010E7B6E76
:101C0000020E7C6E5DEC04F0300EF66E020EF76E86
:101C1000040E6D6E3DEC06F042C06DF0030E6E6E6C
:101C20000FEC07F0380EF66E020EF76E060E6D6EB4
:101C30003DEC06F043C06DF0030E6E6E0FEC07F046
:101C40005B2A585004083DE1050E7B6E010E7C6E48
:101C50005DEC04F052C06DF0010E6E6E0FEC07F0FB
:101C60003A0E7A6E6EEC04F053C06DF0010E6E6E9B
:101C70000FEC07F03A0E7A6E6EEC04F054C06DF083
:101C8000010E6E6E0FEC07F0520EF66E020EF76E3E
:101C9000090E6D6E3DEC06F0010E7B6E020E7C6E41
:101CA0005DEC04F05C0EF66E020EF76E0E0E6D6EBD
:101CB0003DEC06F064C06DF0010E6E6EBAEC06F0FD
:101CC0005B2A948082B009D068B407D0585205E1ED
:101CD0006150030802E3612A5B6A948082B002D0FB
:101CE000688401D06894612C06D0010E596E0C0EE8
:101CF0007A6E6EEC04F06150020806E1020E596E35
:101D00000C0E7A6E6EEC04F06150030806E1030ECF
:101D1000596E0C0E7A6E6EEC04F06150040806E108
:101D2000040E596E0C0E7A6E6EEC04F0592C28D00D
:101D3000010E7B6E7C6E5DEC04F0700EF66E020E92
:101D4000F76E92EC04F024B00CD0010E7B6E020E04
:101D50007C6E5DEC04F07C0EF66E020EF76E92EC7B
:101D600004F024A00CD0010E7B6E020E7C6E5DECA4
:101D700004F08E0EF66E020EF76E92EC04F05B2A03
:101D80005950020828E1010E7B6E7C6E5DEC04F078
:101D9000A00EF66E020EF76E92EC04F024B20CD098
:101DA000010E7B6E020E7C6E5DEC04F0AE0EF66EE4
:101DB000020EF76E92EC04F024A20CD0010E7B6EA2
:101DC000020E7C6E5DEC04F0C00EF66E020EF76E35
:101DD00092EC04F05B2A5950030828E1010E7B6E57
:101DE0007C6E5DEC04F0D20EF66E020EF76E92EC95
:101DF00004F024BC0CD0010E7B6E020E7C6E5DECF8
:101E000004F0E00EF66E020EF76E92EC04F024ACD5
:101E10000CD0010E7B6E020E7C6E5DEC04F0F20EB7
:101E2000F66E020EF76E92EC04F05B2A595004082D
:101E300037E1010E7B6E7C6E5DEC04F0040EF66EF5
:101E4000030EF76E92EC04F035520CE1010E7B6E3E
:101E5000020E7C6E5DEC04F00E0EF66E030EF76E55
:101E600092EC04F0352C0CD0010E7B6E020E7C6ED1
:101E70005DEC04F0200EF66E030EF76E92EC04F0AB
:101E8000355002080CE1010E7B6E020E7C6E5DEC9B
:101E900004F0320EF66E030EF76E92EC04F05B2A3D
:101EA00024A002D095948C8424B004D024B402D011
:101EB00095948C9424A202D095968C8624B204D05A
:101EC00024B602D095968C9624AC04D024BE02D0C1
:101ED000959A8C8A24BC06D0465202E1475202E011
:101EE000959A8C9A24BC06D0445204E1455202E1F2
:101EF000959A8C9A352C04D024BE02D095988C8863
:101F0000355206E12B5202E12C5202E095988C9852
:101F1000355206E1295204E12A5202E195988C9843
:101F2000948282B203D0592C01D02480948282B250
:101F300004D05950020801E12482948282B20AD06E
:101F40005950030807E124BE05D0248C456A446A31
:101F5000476A466A948282B20DD0595004080AE159
:101F600024B808D024BE06D0010E356E2A6A296A2C
:101F70002C6A2B6A948482B403D0592C01D024900B
:101F8000948482B404D05950020801E124929484CC
:101F900082B404D05950030801E1249C948482B493
:101FA00006D05950040803E124B801D0356A5B50CB
:101FB000950803E3948682B607D0586A596A6892F6
:101FC000606A6894616A5B6A000E016EC250C70B5A
:101FD0000110C26E1A0E006E002EFED700001F6A9E
:101FE0001E6A516A506A4F6A4E6A4D6A4C6A010E07
:101FF000576E5750080811E3C284C2B4FED7C3CF4E
:1020000050F0C4CF51F0040E7B6EE3EC03F050505F
:102010001E2651501F22572AECD71F321E321F3264
:102020001E321F321E321F0E1F161FC06EF01EC042
:102030006DF042EC07F000C06DF001C06EF002C020
:102040006FF003C070F003C07DF002C07CF001C0EF
:102050007BF000C07AF0890E816F410E806F1C0EFC
:102060007F6E810E7E6EA2EC04F003C04FF002C0C2
:102070004EF001C04DF000C04CF04FC074F04EC0A7
:1020800073F04DC072F04CC071F0250E786EF50EF5
:10209000776E660E766E840E756E5DEC07F003C08B
:1020A0001DF002C01CF001C01BF000C01AF0080EA9
:1020B000016EC250C70B0110C26E1A0E006E002EC8
:1020C000FED700002E6A2D6A516A506A4F6A4E6A26
:1020D0004D6A4C6A010E576E5750080815E3C284CA
:1020E000C2B4FED7C3CF50F0C4CF51F0040E7B6E04
:1020F000E3EC03F0640E6D6E0AEF08F050502D26ED
:1021000051502E22572AE8D72E322D322E322D3220
:102110002E322D321F0E2E162EC06EF02DC06DF0F9
:1021200042EC07F000C06DF001C06EF002C06FF02D
:1021300003C070F003C07DF002C07CF001C07BF0F2
:1021400000C07AF0890E816F410E806F1C0E7F6E89
:10215000810E7E6EA2EC04F003C04FF002C04EF080
:1021600001C04DF000C04CF0D8824FC070F04EC09E
:102170006FF04DC06EF04CC06DF0746A800E736EDF
:10218000090E726E890E716E18EC08F000C06DF0C9
:1021900001C06EF002C06FF003C070F003C074F0B5
:1021A00002C073F001C072F000C071F0786A776A03
:1021B0001C0E766E840E756E5DEC07F003C028F081
:1021C00002C027F001C026F000C025F0D882706A56
:1021D0006F6A480E6E6E850E6D6E28C074F027C053
:1021E00073F026C072F025C071F018EC08F003C03F
:1021F00028F002C027F001C026F000C025F0180E1C
:10220000016EC250C70B0110C26E1A0E006E002E76
:10221000FED70000406A3F6A516A506A4F6A4E6AB0
:102220004D6A4C6A010E576E5750090811E3C2847B
:10223000C2B4FED7C3CF50F0C4CF51F0040E7B6EB2
:10224000E3EC03F050503F2651504022572AECD780
:1022500040C06EF03FC06DF0706A090E6F6E4DEFBA
:1022600009F002C040F001C03FF040C06EF03FC036
:102270006DF042EC07F000C06DF001C06EF002C0DE
:102280006FF003C070F003C07DF002C07CF001C0AD
:102290007BF000C07AF0890E816F410E806F1C0EBA
:1022A0007F6E810E7E6EA2EC04F003C04FF002C080
:1022B0004EF001C04DF000C04CF0D8824FC070F01D
:1022C0004EC06FF04DC06EF04CC06DF0746A736A12
:1022D000520E726E880E716E18EC08F000C06DF030
:1022E00001C06EF002C06FF003C070F003C074F064
:1022F00002C073F001C072F000C071F0786A776AB2
:10230000780E766E830E756E5DEC07F003C03EF0BE
:1023100002C03DF001C03CF000C03BF06E6A22C03C
:102320006DF042EC07F01DC070F01CC06FF01BC0D8
:102330006EF01AC06DF003C074F002C073F001C0FB
:1023400072F000C071F06FEC09F005E2948482B481
:102350000ED0582C0CD01DC070F01CC06FF01BC0EC
:102360006EF01AC06DF0AAEC09F001C022F06E6A9E
:1023700023C06DF042EC07F003C070F002C06FF0B4
:1023800001C06EF000C06DF01DC074F01CC073F091
:102390001BC072F01AC071F06FEC09F005E2948472
:1023A00082B40ED0582C0CD01DC070F01CC06FF041
:1023B0001BC06EF01AC06DF0AAEC09F001C023F04A
:1023C0006E6A32C06DF042EC07F028C070F027C092
:1023D0006FF026C06EF025C06DF003C074F002C02F
:1023E00073F001C072F000C071F06FEC09F006E20A
:1023F000948482B40FD0585002080CE128C070F0C9
:1024000027C06FF026C06EF025C06DF0AAEC09F071
:1024100001C032F06E6A33C06DF042EC07F003C0C9
:1024200070F002C06FF001C06EF000C06DF028C007
:1024300074F027C073F026C072F025C071F06FEC05
:1024400009F006E2948482B40FD0585002080CE1DF
:1024500028C070F027C06FF026C06EF025C06DF068
:10246000AAEC09F001C033F06E6A42C06DF042EC94
:1024700007F03EC070F03DC06FF03CC06EF03BC056
:102480006DF003C074F002C073F001C072F000C0C0
:1024900071F06FEC09F006E2948482B40FD05850CA
:1024A00003080CE13EC070F03DC06FF03CC06EF020
:1024B0003BC06DF0AAEC09F001C042F06E6A43C067
:1024C0006DF042EC07F003C070F002C06FF001C085
:1024D0006EF000C06DF03EC074F03DC073F03CC0C3
:1024E00072F03BC071F06FEC09F006E2948482B4A4
:1024F0000FD0585003080CE13EC070F03DC06FF0A3
:102500003CC06EF03BC06DF0AAEC09F001C043F096
:10251000948482B408D05850040805E1646A689035
:10252000696A6A6A6B6A948882A812D06C2A6C50B5
:1025300014080DE1248E2A6A296A2C6A2B6A456ADE
:10254000446A476A466A95988C98959A8C9A02D004
:10255000249E6C6A1F520AE11E50040807E3020E13
:10256000656E95948C9495968C9601D0656A2E52E2
:1025700003E12D50630808E22E50020815E2FF0A1D
:1025800003E12D50E80810E2040E666E248A2A6AE0
:10259000296A2C6A2B6A355202E195988C98286A30
:1025A000276A266A256A02D0666A249A405214E194
:1025B0003F50010811E3080E676E959A8C9A3E6AA7
:1025C0003D6A3C6A3B6A456A446A476A466A24BC7B
:1025D00002D0959A8C9A01D0676A000E24BE010E33
:1025E000652466246724636E63521DE05E2A5E5094
:1025F0000A0819E268B003D0689024BE6880695266
:1026000002E165C069F06A5202E166C06AF06B528D
:1026100002E167C06BF0000E68B0010E69246A2405
:102620006B24646E5E6A635204E1959E8C9E5C6AC4
:102630005D6A635210E05C50050802E3959E8C8E43
:102640005C2A5C50050802E2959E8C9E5C500A084C
:1026500001E15C6A5D2A5D50320801E25D6A6E6AE2
:1026600020C06DF042EC07F01DC070F01CC06FF090
:102670001BC06EF01AC06DF003C074F002C073F09E
:1026800001C072F000C071F06FEC09F007E324B0F4
:1026900005D0655203E1248495948C846E6A20C031
:1026A0006DF042EC07F003C070F002C06FF001C0A3
:1026B0006EF000C06DF01DC074F01CC073F01BC044
:1026C00072F01AC071F06FEC09F004E324B002D08C
:1026D00095948C946E6A21C06DF042EC07F003C0B3
:1026E00070F002C06FF001C06EF000C06DF01DC050
:1026F00074F01CC073F01BC072F01AC071F06FEC64
:1027000009F007E324B205D0655203E124869596CB
:102710008C866E6A21C06DF042EC07F01DC070F02F
:102720001CC06FF01BC06EF01AC06DF003C074F0D7
:1027300002C073F001C072F000C071F06FEC09F0DC
:1027400004E324B202D095968C966E6A41C06DF077
:1027500042EC07F003C070F002C06FF001C06EF0F1
:1027600000C06DF03EC074F03DC073F03CC072F02C
:102770003BC071F06FEC09F001E20BE124BC09D021
:10278000959A8C9A456A446A476A466A486A4A6AD0
:10279000496A6E6A41C06DF042EC07F0D88203C00E
:1027A00070F002C06FF001C06EF000C06DF03EC06E
:1027B00074F03DC073F03CC072F03BC071F018EC97
:1027C00008F003C070F002C06FF001C06EF000C0EE
:1027D0006DF0AAEC09F001C04BF06E6A41C06DF0DB
:1027E00042EC07F03EC070F03DC06FF03CC06EF0B0
:1027F0003BC06DF003C074F002C073F001C072F012
:1028000000C071F06FEC09F051E36E6A4BC06DF0DF
:102810006DBE6E06C6EC09F0706A6F6A6E6A6D6A0C
:1028200003C074F002C073F001C072F000C071F018
:102830006FEC09F03BE324BC39D024BE37D067529B
:1028400035E14A6A280E496E486E442AD8B4452AB2
:10285000465209E1475207E14BBE05D04B500008F4
:1028600002E2959A8C8A4850445C08E1455206E1A0
:1028700045C047F044C046F0959A8C9A475203E110
:102880004850465C08E34BBE06D04B50000803E2BC
:10289000462AD8B4472A4A50475C08E303E1495026
:1028A000465C04E3456A446A476A466A6E6A34C015
:1028B0006DF042EC07F003C070F002C06FF001C091
:1028C0006EF000C06DF028C074F027C073F026C011
:1028D00072F025C071F06FEC09F001E20BE13552A6
:1028E00009E195988C982A6A296A2C6A2B6A316AC0
:1028F000306A2F6A6E6A34C06DF042EC07F0D882FD
:1029000003C070F002C06FF001C06EF000C06DF047
:1029100028C074F027C073F026C072F025C071F093
:1029200018EC08F003C070F002C06FF001C06EF048
:1029300000C06DF0AAEC09F001C03AF06E6A34C034
:102940006DF042EC07F028C070F027C06FF026C091
:102950006EF025C06DF003C074F002C073F001C0CA
:1029600072F000C071F06FEC09F0D8A08CD06E6AE4
:102970003AC06DF06DBE6E06C6EC09F0706A6F6A03
:102980006E6A6D6A03C074F002C073F001C072F029
:1029900000C071F06FEC09F0D8A075D03552D8A402
:1029A00072D024BE70D06652D8A46DD024BA6BD039
:1029B0003ABE08D03A504B0805E2306AC80E2F6E76
:1029C000320E316E3ABE0ED03A5032080BE23ABEA9
:1029D00003D03A504B0806E3010E306E2C0E2F6EDA
:1029E000280E316E3ABE0ED03A5014080BE23ABEB1
:1029F00003D03A50320806E3010E306E900E2F6E6F
:102A00001E0E316E3ABE03D03A5014080BE33ABEA4
:102A100009D03A50000806E2010E306EF40E2F6E17
:102A2000140E316E292AD8B42A2A2B5209E12C52CD
:102A300007E13ABE05D03A50000802E295988C882A
:102A40003150295C08E12A5206E12AC02CF029C045
:102A50002BF095988C982C5203E131502B5C08E3B5
:102A60003ABE06D03A50000803E22B2AD8B42C2AEA
:102A700030502C5C08E303E12F502B5C04E32A6AFE
:102A8000296A2C6A2B6A948082B001D0622A9480D1
:102A900082A001D0626A62500F08D8A45BD3586A42
:102AA000596A5A6A606A6892616A6894626A0C0E2E
:102AB0007A6E6EEC04F0948682A64CD3640E7B6E24
:102AC000E3EC03F0956A8C6A948082B003D068B21C
:102AD00001D0622A24B805D06250070802E2070E2E
:102AE000626E948082B002D0688201D06892622CBB
:102AF00006D0010E5A6E0C0E7A6E6EEC04F0625027
:102B0000020806E1020E5A6E0C0E7A6E6EEC04F0AC
:102B10006250030806E1030E5A6E0C0E7A6E6EECDC
:102B200004F06250040806E1040E5A6E0C0E7A6E30
:102B30006EEC04F06250050806E1050E5A6E0C0EAC
:102B40007A6E6EEC04F06250060806E1060E5A6ECC
:102B50000C0E7A6E6EEC04F06250070806E1070E68
:102B60005A6E0C0E7A6E6EEC04F06250080806E1A4
:102B7000080E5A6E0C0E7A6E6EEC04F06250090864
:102B800006E1090E5A6E0C0E7A6E6EEC04F062507D
:102B90000A0806E10A0E5A6E0C0E7A6E6EEC04F00C
:102BA00062500B0806E10B0E5A6E0C0E7A6E6EEC3C
:102BB00004F05A2C38D0010E7B6E7C6E5DEC04F074
:102BC000440EF66E030EF76E92EC04F0010E7B6E6F
:102BD000020E7C6E5DEC04F0500EF66E030EF76E86
:102BE0000C0E6D6E3DEC06F020C06DF0010E6E6EA9
:102BF000BAEC06F0DF0E7A6E6EEC04F0430E7A6EDD
:102C00006EEC04F0948282B201D0202A948482B4C3
:102C100001D02006205202E1010E206E20503C0817
:102C200002E23C0E206E5A50020839E1010E7B6E22
:102C30007C6E5DEC04F0640EF66E030EF76E92ECA3
:102C400004F0010E7B6E020E7C6E5DEC04F0700EE3
:102C5000F66E030EF76E0C0E6D6E3DEC06F021C0A5
:102C60006DF0010E6E6EBAEC06F0DF0E7A6E6EEC51
:102C700004F0430E7A6E6EEC04F0948282B201D0BE
:102C8000212A948482B401D021062150130802E342
:102C9000140E216E21503D0802E23D0E216E5A5065
:102CA000030836E1010E7B6E7C6E5DEC04F0840E51
:102CB000F66E030EF76E92EC04F0010E7B6E020EC0
:102CC0007C6E5DEC04F0960EF66E030EF76E0C0E45
:102CD0006D6E3DEC06F034C06DF0030E6E6EBAEC16
:102CE00006F0AA0EF66E030EF76E92EC04F09482D4
:102CF00082B201D0342A948482B401D03406345292
:102D000002E1010E346E3450640802E2640E346E47
:102D10005A50040836E1010E7B6E7C6E5DEC04F0C7
:102D2000AC0EF66E030EF76E92EC04F0010E7B6EA5
:102D3000020E7C6E5DEC04F0BC0EF66E030EF76EB8
:102D40000C0E6D6E3DEC06F041C06DF0030E6E6E24
:102D5000BAEC06F0D00EF66E030EF76E92EC04F0AD
:102D6000948282B201D0412A948482B401D0410677
:102D7000415202E1010E416E4150640802E2640ECC
:102D8000416E5A50050843E152C056F0010E7B6E69
:102D90007C6E5DEC04F0D20EF66E030EF76E92ECD4
:102DA00004F0050E7B6E020E7C6E5DEC04F07E0E70
:102DB0007A6E6EEC04F052C06DF0010E6E6EBAECDD
:102DC00006F03A0E7A6E6EEC04F053C06DF0010E10
:102DD0006E6EBAEC06F0ED0EF66E030EF76E060E92
:102DE0006D6E3DEC06F0948282B201D0522A94843A
:102DF00082B401D05206525201E1526A5250170871
:102E000002E2170E526E5250565C01E0546A5A505C
:102E1000060843E153C056F0010E7B6E7C6E5DECFC
:102E200004F0F40EF66E030EF76E92EC04F0060E4C
:102E30007B6E020E7C6E5DEC04F052C06DF0010EF4
:102E40006E6EBAEC06F03A0E7A6E6EEC04F053C079
:102E50006DF0010E6E6EBAEC06F07F0E7A6E6EECBF
:102E600004F00F0EF66E040EF76E060E6D6E3DEC5E
:102E700006F0948282B201D0532A948482B401D0A5
:102E80005306535201E1536A53503B0802E23B0E92
:102E9000536E5350565C01E0546A5A5007083AE1A9
:102EA000010E7B6E7C6E5DEC04F0160EF66E040E69
:102EB000F76E92EC04F024B80FD024BA0DD0010EB6
:102EC0007B6E020E7C6E5DEC04F0280EF66E040E36
:102ED000F76E92EC04F0356A24B802D024AA12D01E
:102EE000010E7B6E020E7C6E5DEC04F03A0EF66E07
:102EF000040EF76E92EC04F0020E356E2A6A296A0F
:102F00002C6A2B6A948282B201D02488948482B481
:102F100001D024985A50080841E1010E7B6E7C6E66
:102F20005DEC04F04C0EF66E040EF76E92EC04F0BD
:102F3000010E7B6E020E7C6E5DEC04F05C0EF66E94
:102F4000040EF76E090E6D6E3DEC06F07E0E7A6E85
:102F50006EEC04F036C06DF0010E6E6EBAEC06F049
:102F60003A0E7A6E6EEC04F038C06DF0010E6E6EA3
:102F7000BAEC06F0200E7A6E6EEC04F0948282B207
:102F800001D0362A948482B401D03606365201E14B
:102F9000366A3650170802E2170E366E5A50090884
:102FA0003DE1010E7B6E7C6E5DEC04F0720EF66E00
:102FB000040EF76E92EC04F0010E7B6E020E7C6E36
:102FC0005DEC04F0820EF66E040EF76E0A0E6D6E66
:102FD0003DEC06F036C06DF0010E6E6EBAEC06F0F8
:102FE0003A0E7A6E6EEC04F038C06DF0010E6E6E23
:102FF000BAEC06F07F0E7A6E6EEC04F0948282B228
:1030000001D0382A948482B401D03806385201E1C4
:10301000386A38503B0802E23B0E386E5A500A08B4
:1030200041E1010E7B6E7C6E5DEC04F0980EF66E55
:10303000040EF76E92EC04F0010E7B6E020E7C6EB5
:103040005DEC04F0A80EF66E040EF76E090E6D6EC0
:103050003DEC06F07E0E7A6E6EEC04F037C06DF03B
:10306000010E6E6EBAEC06F03A0E7A6E6EEC04F05B
:1030700039C06DF0010E6E6EBAEC06F0200E7A6E5D
:103080006EEC04F0948282B201D0372A948482B428
:1030900001D03706375201E1376A3750170802E28C
:1030A000170E376E5A500B083DE1010E7B6E7C6E99
:1030B0005DEC04F0BE0EF66E040EF76E92EC04F0BA
:1030C000010E7B6E020E7C6E5DEC04F0CE0EF66E91
:1030D000040EF76E0A0E6D6E3DEC06F037C06DF013
:1030E000010E6E6EBAEC06F03A0E7A6E6EEC04F0DB
:1030F00039C06DF0010E6E6EBAEC06F07F0E7A6E7E
:103100006EEC04F0948282B201D0392A948482B4A5
:1031100001D03906395201E1396A39503B0802E2DF
:103120003B0E396E552A5550090802E2542A556A59
:1031300054503B0802E2546A532A53503B0803E2BE
:10314000546A536A522A5250170803E2526A536A69
:10315000546AB1D4948682B609D0586A596A5A6AB8
:103160006892606A6894616A626A5B6A552A55501F
:10317000070802E2542A556A54503B0802E2546A96
:10318000532A53503B0803E2546A536A522A52505E
:10319000170803E2526A536A546A24AA06D0020E40
:1031A000356E2A6A296A2C6A2B6A3750365C04E12C
:1031B0003950385C01E1392A24A80AD05350385CD0
:1031C00007E15250365C04E124BE02D095988C8809
:1031D00024AA0AD05350385C07E15250365C04E10F
:1031E00024BE02D095988C8824A808D05350395C0E
:1031F00005E15250375C02E195988C9824AA08D0DA
:103200005350395C05E15250375C02E195988C9837
:10321000F2CF6DF0F29E010EA96EA69CA69EA6802E
:10322000A8506DBEF28E566E2050565C16E0010E10
:10323000A96E20C0A8FFA69CA69EA684F250006E90
:10324000F29E0F01550EA76EAA0EA76EA682A6B219
:10325000FED7A6940050F2120001F2CF6DF0F29E5C
:10326000020EA96EA69CA69EA680A8506DBEF28EE8
:10327000566E2150565C16E0020EA96E21C0A8FFC2
:10328000A69CA69EA684F250006EF29E0F01550EDB
:10329000A76EAA0EA76EA682A6B2FED7A69400506D
:1032A000F2120001F2CF6DF0F29E030EA96EA69C01
:1032B000A69EA680A8506DBEF28E566E3450565C07
:1032C0001AE0030EA96E34C0A8FFA69CA69EA68491
:1032D000F250006EF29E0F01550EA76EAA0EA76E59
:1032E000A682A6B2FED7A6940050F2122A6A296AD4
:1032F0002C6A2B6A0001F2CF6DF0F29E040EA96ECB
:10330000A69CA69EA680A8506DBEF28E566E415019
:10331000565C16E0040EA96E41C0A8FFA69CA69EAE
:10332000A684F250006EF29E0F01550EA76EAA0EF3
:10333000A76EA682A6B2FED7A6940050F212000194
:10334000F2CF6DF0F29E050EA96EA69CA69EA680F9
:10335000A8506DBEF28E566E3650565C16E0050EC5
:10336000A96E36C0A8FFA69CA69EA684F250006E49
:10337000F29E0F01550EA76EAA0EA76EA682A6B2E8
:10338000FED7A6940050F2120001F2CF6DF0F29E2B
:10339000060EA96EA69CA69EA680A8506DBEF28EB3
:1033A000566E3750565C16E0060EA96E37C0A8FF61
:1033B000A69CA69EA684F250006EF29E0F01550EAA
:1033C000A76EAA0EA76EA682A6B2FED7A69400503C
:1033D000F2120001F2CF6DF0F29E070EA96EA69CCC
:1033E000A69EA680A8506DBEF28E566E3850565CD2
:1033F00016E0070EA96E38C0A8FFA69CA69EA6845C
:10340000F250006EF29E0F01550EA76EAA0EA76E27
:10341000A682A6B2FED7A6940050F2120001F2CF07
:103420006DF0F29E080EA96EA69CA69EA680A850DE
:103430006DBEF28E566E3950565C16E0080EA96EBF
:1034400039C0A8FFA69CA69EA684F250006EF29EEC
:103450000F01550EA76EAA0EA76EA682A6B2FED7C2
:10346000A6940050F2120001F2CF6DF0F29E090E08
:10347000A96EA69CA69EA680A8506DBEF28E566E22
:10348000000E68B0010E565C1AE0000E68B0010E26
:103490006D6E090EA96E6DC0A8FFA69CA69EA6849F
:1034A000F250006EF29E0F01550EA76EAA0EA76E87
:1034B000A682A6B2FED7A6940050F2120001F2CF67
:1034C0006DF0F29E0A0EA96EA69CA69EA680A8503C
:1034D0006DBEF28E566E6950565C16E00A0EA96EED
:1034E00069C0A8FFA69CA69EA684F250006EF29E1C
:1034F0000F01550EA76EAA0EA76EA682A6B2FED722
:10350000A6940050F2120001F2CF6DF0F29E0B0E65
:10351000A96EA69CA69EA680A8506DBEF28E566E81
:103520006A50565C16E00B0EA96E6AC0A8FFA69CF6
:10353000A69EA684F250006EF29E0F01550EA76E55
:10354000AA0EA76EA682A6B2FED7A6940050F212CB
:103550000001F2CF6DF0F29E0C0EA96EA69CA69E05
:10356000A680A8506DBEF28E566E6B50565C16E06B
:103570000C0EA96E6BC0A8FFA69CA69EA684F25056
:10358000006EF29E0F01550EA76EAA0EA76EA682C0
:10359000A6B2FED7A6940050F2120001192C74D0E6
:1035A000E40EF66E040EF76E0D0E6D6EEAEC09F089
:1035B000010EE96E1DC070F01CC06FF01BC06EF0F4
:1035C0001AC06DF0716EFAEC09F0F60EF66E040E8C
:1035D000F76E090E6D6EEAEC09F0000EF66E050E40
:1035E000F76E0F0E6D6EEAEC09F0010EE96E3EC04B
:1035F00070F03DC06FF03CC06EF03BC06DF0716E7E
:10360000FAEC09F0200E9EA8FED7AD6E1C0EF66EE9
:10361000050EF76EBEEC0AF0200E9EA8FED7AD6E2A
:103620000D0E9EA8FED7AD6E0A0E9EA8FED7AD6EFB
:103630001E0EF66E050EF76E110E6D6EEAEC09F0B9
:10364000010EE96E28C070F027C06FF026C06EF042
:1036500025C06DF0716EFAEC09F0200E9EA8FED721
:10366000AD6E3C0EF66E050EF76EBEEC0AF0200E47
:103670009EA8FED7AD6E0D0E9EA8FED7AD6E0A0EAB
:103680009EA8FED7AD6E196A1950020808E1248081
:103690003E0EF66E050EF76EBEEC0AF0196A195072
:1036A000030808E12490620EF66E050EF76EBEEC7C
:1036B0000AF0196A1950040808E12482880EF66E8F
:1036C000050EF76EBEEC0AF0196A1950050808E1FC
:1036D0002492AE0EF66E050EF76EBEEC0AF0196A75
:1036E0001950060808E1248CD60EF66E050EF76E0A
:1036F000BEEC0AF0196A1950070808E1249CFE0E76
:10370000F66E050EF76EBEEC0AF0196A195008083D
:103710000DE1010E356E280EF66E060EF76EBEEC4C
:103720000AF02A6A296A2C6A2B6A196A1950090850
:1037300008E1356A4C0EF66E060EF76EBEEC0AF026
:10374000196A19500A08D8A4B9D0720EF66E060E7E
:10375000F76E1F0E6D6EEAEC09F022C06DF01B0EC5
:103760006E6ECFEC0AF0930EF66E060EF76E090E33
:103770006D6EEAEC09F09E0EF66E060EF76E200EE8
:103780006D6EEAEC09F023C06DF01B0E6E6ECFEC8F
:103790000AF0C00EF66E060EF76E090E6D6EEAECBC
:1037A00009F0CA0EF66E060EF76E210E6D6EEAEC8B
:1037B00009F042C06DF01B0E6E6ECFEC0AF0200EC9
:1037C0009EA8FED7AD6EF40EF66E060EF76EBEEC3A
:1037D0000AF0200E9EA8FED7AD6E0D0E9EA8FED755
:1037E000AD6E0A0E9EA8FED7AD6EF60EF66E060EF4
:1037F000F76E210E6D6EEAEC09F043C06DF01B0E02
:103800006E6ECFEC0AF0200E9EA8FED7AD6E220E93
:10381000F66E070EF76EBEEC0AF01C0EF66E070E83
:10382000F76E040E6D6EEAEC09F0240EF66E070ECC
:10383000F76E240E6D6EEAEC09F032C06DF01B0ECF
:103840006E6ECFEC0AF0200E9EA8FED7AD6E520E23
:10385000F66E070EF76EBEEC0AF0200E9EA8FED79D
:10386000AD6E0D0E9EA8FED7AD6E0A0E9EA8FED7B9
:10387000AD6E540EF66E070EF76E230E6D6EEAEC0B
:1038800009F033C06DF01B0E6E6ECFEC0AF0200E07
:103890009EA8FED7AD6E800EF66E070EF76EBEECDC
:1038A0000AF0200E9EA8FED7AD6E0D0E9EA8FED784
:1038B000AD6E0A0E9EA8FED7AD6E196A19500B08A0
:1038C0001BE1820EF66E070EF76E150E6D6EEAECBA
:1038D00009F064C06DF0180E6E6E07EC0BF0200E50
:1038E0009EA8FED7AD6E0D0E9EA8FED7AD6E0A0E39
:1038F0009EA8FED7AD6E196A63521BE05F2A5F5027
:10390000640817E29E0EF66E070EF76E220E6D6EBD
:10391000EAEC09F063C06DF0180E6E6E07EC0BF068
:103920000D0E9EA8FED7AD6E0A0E9EA8FED7AD6EF8
:083930005F6AA4EF0CF0030034
:020000040030CA
:0E00000000220C0E0001810000C00FE00F4036
:00000001FF
;PIC18F452
;CRC=2956  CREATED="04-fev-19 18:22"
